{
  "_format": "hh3-artifact-1",
  "contractName": "Tamagochi",
  "sourceName": "contracts/Tamagochi.sol",
  "abi": [
    {
      "inputs": [],
      "stateMutability": "nonpayable",
      "type": "constructor"
    },
    {
      "inputs": [
        {
          "internalType": "string",
          "name": "name",
          "type": "string"
        }
      ],
      "name": "addTama",
      "outputs": [],
      "stateMutability": "nonpayable",
      "type": "function"
    },
    {
      "inputs": [],
      "name": "attemptAdvancement",
      "outputs": [],
      "stateMutability": "nonpayable",
      "type": "function"
    },
    {
      "inputs": [],
      "name": "calculateStats",
      "outputs": [],
      "stateMutability": "nonpayable",
      "type": "function"
    },
    {
      "inputs": [
        {
          "internalType": "string",
          "name": "meal",
          "type": "string"
        }
      ],
      "name": "feedMyCreature",
      "outputs": [],
      "stateMutability": "nonpayable",
      "type": "function"
    },
    {
      "inputs": [],
      "name": "getCreatureStage",
      "outputs": [
        {
          "internalType": "enum Tamagochi.TamaStages",
          "name": "",
          "type": "uint8"
        }
      ],
      "stateMutability": "view",
      "type": "function"
    },
    {
      "inputs": [],
      "name": "getMyCreatureFoodLvl",
      "outputs": [
        {
          "internalType": "uint16",
          "name": "foodLvl",
          "type": "uint16"
        }
      ],
      "stateMutability": "view",
      "type": "function"
    },
    {
      "inputs": [],
      "name": "getMyCreatureHappinessLvl",
      "outputs": [
        {
          "internalType": "uint16",
          "name": "happinessLvl",
          "type": "uint16"
        }
      ],
      "stateMutability": "view",
      "type": "function"
    },
    {
      "inputs": [],
      "name": "getMyCreatureName",
      "outputs": [
        {
          "internalType": "string",
          "name": "name",
          "type": "string"
        }
      ],
      "stateMutability": "view",
      "type": "function"
    },
    {
      "inputs": [
        {
          "internalType": "string",
          "name": "",
          "type": "string"
        }
      ],
      "name": "meals",
      "outputs": [
        {
          "internalType": "string",
          "name": "name",
          "type": "string"
        },
        {
          "internalType": "uint16",
          "name": "points",
          "type": "uint16"
        },
        {
          "internalType": "bool",
          "name": "exists",
          "type": "bool"
        }
      ],
      "stateMutability": "view",
      "type": "function"
    },
    {
      "inputs": [],
      "name": "playtime",
      "outputs": [],
      "stateMutability": "nonpayable",
      "type": "function"
    }
  ],
  "bytecode": "0x6080604052611388600155348015610015575f5ffd5b505f80546001600160a01b031916331790556040805160a081018252600660608201908152654b6962626c6560d01b6080830152815260056020820152600181830152905160029061007390654b6962626c6560d01b815260060190565b908152604051908190036020019020815181906100909082610297565b50602082810151600192830180546040958601511515620100000262ffffff1990911661ffff90931692909217919091179055825160a0810184526006606082019081526543687572726f60d01b60808301528152600a91810191909152808301919091529051600290610110906543687572726f60d01b815260060190565b9081526040519081900360200190208151819061012d9082610297565b50602082810151600192830180546040958601511515620100000262ffffff1990911661ffff90931692909217919091179055825160a08101845260056060820190815264537465616b60d81b60808301528152600f918101919091528083019190915290516002906101ab9064537465616b60d81b815260050190565b908152604051908190036020019020815181906101c89082610297565b506020820151600190910180546040909301511515620100000262ffffff1990931661ffff90921691909117919091179055610351565b634e487b7160e01b5f52604160045260245ffd5b600181811c9082168061022757607f821691505b60208210810361024557634e487b7160e01b5f52602260045260245ffd5b50919050565b601f82111561029257805f5260205f20601f840160051c810160208510156102705750805b601f840160051c820191505b8181101561028f575f815560010161027c565b50505b505050565b81516001600160401b038111156102b0576102b06101ff565b6102c4816102be8454610213565b8461024b565b6020601f8211600181146102f6575f83156102df5750848201515b5f19600385901b1c1916600184901b17845561028f565b5f84815260208120601f198516915b828110156103255787850151825560209485019460019092019101610305565b508482101561034257868401515f19600387901b60f8161c191681555b50505050600190811b01905550565b610ea38061035e5f395ff3fe608060405234801561000f575f5ffd5b506004361061009b575f3560e01c8063a8f2561a11610063578063a8f2561a1461010c578063c03ae9a614610114578063c49624f814610135578063ca66cea614610157578063e5dd99ff1461016a575f5ffd5b806313b53ce71461009f57806333d6bff8146100b45780634def4572146100d25780638b8a6dea146100da5780639a47fa97146100e2575b5f5ffd5b6100b26100ad366004610af6565b610191565b005b6100bc6103c2565b6040516100c99190610bd7565b60405180910390f35b6100b2610460565b6100b2610684565b335f9081526003602052604090206001015461ffff165b60405161ffff90911681526020016100c9565b6100b2610803565b335f9081526003602052604090206001015462010000900461ffff166100f9565b610148610143366004610af6565b6108dc565b6040516100c993929190610bf0565b6100b2610165366004610af6565b610999565b335f90815260036020526040902060040154610100900460ff166040516100c99190610c31565b335f9081526003602052604090206001015461ffff16158015906101cf5750335f9081526003602052604090206001015462010000900461ffff1615155b801561020657506006335f90815260036020526040902060040154610100900460ff16600681111561020357610203610c1d565b14155b61022b5760405162461bcd60e51b815260040161022290610c57565b60405180910390fd5b60028160405161023b9190610c85565b9081526040519081900360200190206001015460ff62010000909104166102a45760405162461bcd60e51b815260206004820152601b60248201527f5468697320666f6f64206973206e6f7420617661696c61626c652e00000000006044820152606401610222565b335f90815260036020526040902060010154606461ffff9091161061030b5760405162461bcd60e51b815260206004820152601a60248201527f496d20676f696e6720746f2070756b652e2e2e20626c65682e2e0000000000006044820152606401610222565b60028160405161031b9190610c85565b9081526040805160209281900383019020600190810154335f908152600390945291832001805461ffff92831693919261035791859116610caf565b92506101000a81548161ffff021916908361ffff160217905550610379610684565b610381610803565b335f90815260036020526040902060010154606461ffff90911611156103bf57335f908152600360205260409020600101805461ffff191660641790555b50565b335f9081526003602052604090208054606091906103df90610ccf565b80601f016020809104026020016040519081016040528092919081815260200182805461040b90610ccf565b80156104565780601f1061042d57610100808354040283529160200191610456565b820191905f5260205f20905b81548152906001019060200180831161043957829003601f168201915b5050505050905090565b335f9081526003602052604090206001015461ffff161580159061049e5750335f9081526003602052604090206001015462010000900461ffff1615155b80156104d557506006335f90815260036020526040902060040154610100900460ff1660068111156104d2576104d2610c1d565b14155b6104f15760405162461bcd60e51b815260040161022290610c57565b335f9081526003602052604081206001015462010000900461ffff16900361055b5760405162461bcd60e51b815260206004820152601a60248201527f4f686e6f206920676f7420626f72656420746f206465617468210000000000006044820152606401610222565b335f9081526003602052604090206001015460646201000090910461ffff16106105e25760405162461bcd60e51b815260206004820152603260248201527f5468616e6b20796f7520666f7220706c6179696e672077697468206d652c206e6044820152716f77206c65617665206d6520616c6f6e652160701b6064820152608401610222565b335f90815260036020526040902060010180546005919060029061061190849062010000900461ffff16610caf565b92506101000a81548161ffff021916908361ffff160217905550610633610684565b61063b610803565b335f9081526003602052604090206001015460646201000090910461ffff16111561068257335f908152600360205260409020600101805463ffff00001916626400001790555b565b335f9081526003602052604090206001015461ffff16158015906106c25750335f9081526003602052604090206001015462010000900461ffff1615155b80156106f957506006335f90815260036020526040902060040154610100900460ff1660068111156106f6576106f6610c1d565b14155b6107155760405162461bcd60e51b815260040161022290610c57565b600154335f908152600360205260409020600201546107349042610d07565b61073e9190610d1a565b335f908152600360205260408120600101805490919061076390849061ffff16610d39565b92506101000a81548161ffff021916908361ffff16021790555060015460035f336001600160a01b03166001600160a01b031681526020019081526020015f2060030154426107b29190610d07565b6107bc9190610d1a565b335f90815260036020526040902060010180546002906107e790849062010000900461ffff16610d39565b92506101000a81548161ffff021916908361ffff160217905550565b335f9081526003602052604090206001015461ffff808216606490811180159362010000900490921610159082906108385750805b156108d857335f90815260036020526040902060040154610100900460ff16600681111561086857610868610c1d565b610873906001610d53565b600681111561088457610884610c1d565b335f908152600360205260409020600401805461ff0019166101008360068111156108b1576108b1610c1d565b0217905550335f908152600360205260409020600101805463ffffffff1916623200321790555b5050565b805160208183018101805160028252928201919093012091528054819061090290610ccf565b80601f016020809104026020016040519081016040528092919081815260200182805461092e90610ccf565b80156109795780601f1061095057610100808354040283529160200191610979565b820191905f5260205f20905b81548152906001019060200180831161095c57829003601f168201915b5050506001909301549192505061ffff81169060ff620100009091041683565b335f9081526003602052604090206004015460ff1680156109fc5760405162461bcd60e51b815260206004820152601e60248201527f596f752063616e206f6e6c792068617665206f6e6520637265617475726500006044820152606401610222565b6040805160e0810182528381526032602082018190529181019190915242606082018190526080820152600160a082015260c081015f9052335f90815260036020526040902081518190610a509082610db2565b506020820151600182018054604085015161ffff908116620100000263ffffffff19909216931692909217919091179055606082015160028201556080820151600382015560a082015160048201805491151560ff1983168117825560c08501519261ff001990911661ffff199190911617610100836006811115610ad757610ad7610c1d565b021790555050505050565b634e487b7160e01b5f52604160045260245ffd5b5f60208284031215610b06575f5ffd5b813567ffffffffffffffff811115610b1c575f5ffd5b8201601f81018413610b2c575f5ffd5b803567ffffffffffffffff811115610b4657610b46610ae2565b604051601f8201601f19908116603f0116810167ffffffffffffffff81118282101715610b7557610b75610ae2565b604052818152828201602001861015610b8c575f5ffd5b816020840160208301375f91810160200191909152949350505050565b5f81518084528060208401602086015e5f602082860101526020601f19601f83011685010191505092915050565b602081525f610be96020830184610ba9565b9392505050565b606081525f610c026060830186610ba9565b61ffff94909416602083015250901515604090910152919050565b634e487b7160e01b5f52602160045260245ffd5b6020810160078310610c5157634e487b7160e01b5f52602160045260245ffd5b91905290565b602080825260149082015273086e4cac2e8eae4ca40d2e640c8cac2c8424074560631b604082015260600190565b5f82518060208501845e5f920191825250919050565b634e487b7160e01b5f52601160045260245ffd5b61ffff8181168382160190811115610cc957610cc9610c9b565b92915050565b600181811c90821680610ce357607f821691505b602082108103610d0157634e487b7160e01b5f52602260045260245ffd5b50919050565b81810381811115610cc957610cc9610c9b565b5f82610d3457634e487b7160e01b5f52601260045260245ffd5b500490565b61ffff8281168282160390811115610cc957610cc9610c9b565b80820180821115610cc957610cc9610c9b565b601f821115610dad57805f5260205f20601f840160051c81016020851015610d8b5750805b601f840160051c820191505b81811015610daa575f8155600101610d97565b50505b505050565b815167ffffffffffffffff811115610dcc57610dcc610ae2565b610de081610dda8454610ccf565b84610d66565b6020601f821160018114610e12575f8315610dfb5750848201515b5f19600385901b1c1916600184901b178455610daa565b5f84815260208120601f198516915b82811015610e415787850151825560209485019460019092019101610e21565b5084821015610e5e57868401515f19600387901b60f8161c191681555b50505050600190811b0190555056fea2646970667358221220ea7282c98fa8000f6492c9389a1cd7148f2bc672ebcbf70f00ada91426e9b63a64736f6c634300081c0033",
  "linkReferences": {},
  "deployedLinkReferences": {},
  "immutableReferences": {},
  "inputSourceName": "project/contracts/Tamagochi.sol",
  "buildInfoId": "solc-0_8_28-f6e2bd7b77152f24dae148381c3eeee997798cf0"
}