{
  "_format": "hh3-artifact-1",
  "contractName": "Tamagochi",
  "sourceName": "contracts/Tamagochi.sol",
  "abi": [
    {
      "inputs": [],
      "stateMutability": "nonpayable",
      "type": "constructor"
    },
    {
      "inputs": [
        {
          "internalType": "string",
          "name": "name",
          "type": "string"
        }
      ],
      "name": "addTama",
      "outputs": [],
      "stateMutability": "nonpayable",
      "type": "function"
    },
    {
      "inputs": [],
      "name": "attemptAdvancement",
      "outputs": [],
      "stateMutability": "nonpayable",
      "type": "function"
    },
    {
      "inputs": [],
      "name": "calculateStats",
      "outputs": [],
      "stateMutability": "nonpayable",
      "type": "function"
    },
    {
      "inputs": [
        {
          "internalType": "string",
          "name": "meal",
          "type": "string"
        }
      ],
      "name": "feedMyCreature",
      "outputs": [],
      "stateMutability": "nonpayable",
      "type": "function"
    },
    {
      "inputs": [],
      "name": "getCreatureStage",
      "outputs": [
        {
          "internalType": "enum Tamagochi.TamaStages",
          "name": "",
          "type": "uint8"
        }
      ],
      "stateMutability": "view",
      "type": "function"
    },
    {
      "inputs": [],
      "name": "getMyCreatureFoodLvl",
      "outputs": [
        {
          "internalType": "uint16",
          "name": "foodLvl",
          "type": "uint16"
        }
      ],
      "stateMutability": "view",
      "type": "function"
    },
    {
      "inputs": [],
      "name": "getMyCreatureHappinessLvl",
      "outputs": [
        {
          "internalType": "uint16",
          "name": "happinessLvl",
          "type": "uint16"
        }
      ],
      "stateMutability": "view",
      "type": "function"
    },
    {
      "inputs": [],
      "name": "getMyCreatureName",
      "outputs": [
        {
          "internalType": "string",
          "name": "name",
          "type": "string"
        }
      ],
      "stateMutability": "view",
      "type": "function"
    },
    {
      "inputs": [
        {
          "internalType": "string",
          "name": "",
          "type": "string"
        }
      ],
      "name": "meals",
      "outputs": [
        {
          "internalType": "string",
          "name": "name",
          "type": "string"
        },
        {
          "internalType": "uint16",
          "name": "points",
          "type": "uint16"
        },
        {
          "internalType": "bool",
          "name": "exists",
          "type": "bool"
        }
      ],
      "stateMutability": "view",
      "type": "function"
    },
    {
      "inputs": [],
      "name": "playtime",
      "outputs": [],
      "stateMutability": "nonpayable",
      "type": "function"
    }
  ],
  "bytecode": "0x6080604052611388600155348015610015575f5ffd5b505f80546001600160a01b031916331790556040805160a081018252600660608201908152654b6962626c6560d01b6080830152815260056020820152600181830152905160029061007390654b6962626c6560d01b815260060190565b908152604051908190036020019020815181906100909082610297565b50602082810151600192830180546040958601511515620100000262ffffff1990911661ffff90931692909217919091179055825160a0810184526006606082019081526543687572726f60d01b60808301528152600a91810191909152808301919091529051600290610110906543687572726f60d01b815260060190565b9081526040519081900360200190208151819061012d9082610297565b50602082810151600192830180546040958601511515620100000262ffffff1990911661ffff90931692909217919091179055825160a08101845260056060820190815264537465616b60d81b60808301528152600f918101919091528083019190915290516002906101ab9064537465616b60d81b815260050190565b908152604051908190036020019020815181906101c89082610297565b506020820151600190910180546040909301511515620100000262ffffff1990931661ffff90921691909117919091179055610351565b634e487b7160e01b5f52604160045260245ffd5b600181811c9082168061022757607f821691505b60208210810361024557634e487b7160e01b5f52602260045260245ffd5b50919050565b601f82111561029257805f5260205f20601f840160051c810160208510156102705750805b601f840160051c820191505b8181101561028f575f815560010161027c565b50505b505050565b81516001600160401b038111156102b0576102b06101ff565b6102c4816102be8454610213565b8461024b565b6020601f8211600181146102f6575f83156102df5750848201515b5f19600385901b1c1916600184901b17845561028f565b5f84815260208120601f198516915b828110156103255787850151825560209485019460019092019101610305565b508482101561034257868401515f19600387901b60f8161c191681555b50505050600190811b01905550565b610cfc8061035e5f395ff3fe608060405234801561000f575f5ffd5b506004361061009b575f3560e01c8063a8f2561a11610063578063a8f2561a1461010c578063c03ae9a614610114578063c49624f814610135578063ca66cea614610157578063e5dd99ff1461016a575f5ffd5b806313b53ce71461009f57806333d6bff8146100b45780634def4572146100d25780638b8a6dea146100da5780639a47fa97146100e2575b5f5ffd5b6100b26100ad36600461094f565b610191565b005b6100bc610315565b6040516100c99190610a30565b60405180910390f35b6100b26103b3565b6100b26104f9565b335f9081526003602052604090206001015461ffff165b60405161ffff90911681526020016100c9565b6100b261065c565b335f9081526003602052604090206001015462010000900461ffff166100f9565b61014861014336600461094f565b610735565b6040516100c993929190610a49565b6100b261016536600461094f565b6107f2565b335f90815260036020526040902060040154610100900460ff166040516100c99190610a8a565b335f9081526003602052604090206001015461ffff16158015906101cf5750335f9081526003602052604090206001015462010000900461ffff1615155b801561020657506006335f90815260036020526040902060040154610100900460ff16600681111561020357610203610a76565b14155b61022b5760405162461bcd60e51b815260040161022290610ab0565b60405180910390fd5b60028160405161023b9190610ade565b9081526040519081900360200190206001015460ff62010000909104166102a45760405162461bcd60e51b815260206004820152601b60248201527f5468697320666f6f64206973206e6f7420617661696c61626c652e00000000006044820152606401610222565b6002816040516102b49190610ade565b9081526040805160209281900383019020600190810154335f908152600390945291832001805461ffff9283169391926102f091859116610b08565b92506101000a81548161ffff021916908361ffff1602179055506103126104f9565b50565b335f90815260036020526040902080546060919061033290610b28565b80601f016020809104026020016040519081016040528092919081815260200182805461035e90610b28565b80156103a95780601f10610380576101008083540402835291602001916103a9565b820191905f5260205f20905b81548152906001019060200180831161038c57829003601f168201915b5050505050905090565b335f9081526003602052604090206001015461ffff16158015906103f15750335f9081526003602052604090206001015462010000900461ffff1615155b801561042857506006335f90815260036020526040902060040154610100900460ff16600681111561042557610425610a76565b14155b6104445760405162461bcd60e51b815260040161022290610ab0565b335f9081526003602052604081206001015462010000900461ffff1690036104ae5760405162461bcd60e51b815260206004820152601a60248201527f4f686e6f206920676f7420626f72656420746f206465617468210000000000006044820152606401610222565b335f9081526003602052604090206001018054600591906002906104dd90849062010000900461ffff16610b08565b92506101000a81548161ffff021916908361ffff160217905550565b335f9081526003602052604090206001015461ffff16158015906105375750335f9081526003602052604090206001015462010000900461ffff1615155b801561056e57506006335f90815260036020526040902060040154610100900460ff16600681111561056b5761056b610a76565b14155b61058a5760405162461bcd60e51b815260040161022290610ab0565b600154335f908152600360205260409020600201546105a99042610b60565b6105b39190610b73565b335f90815260036020526040812060010180549091906105d890849061ffff16610b92565b92506101000a81548161ffff021916908361ffff16021790555060015460035f336001600160a01b03166001600160a01b031681526020019081526020015f2060030154426106279190610b60565b6106319190610b73565b335f90815260036020526040902060010180546002906104dd90849062010000900461ffff16610b92565b335f9081526003602052604090206001015461ffff808216606490811180159362010000900490921610159082906106915750805b1561073157335f90815260036020526040902060040154610100900460ff1660068111156106c1576106c1610a76565b6106cc906001610bac565b60068111156106dd576106dd610a76565b335f908152600360205260409020600401805461ff00191661010083600681111561070a5761070a610a76565b0217905550335f908152600360205260409020600101805463ffffffff1916623200321790555b5050565b805160208183018101805160028252928201919093012091528054819061075b90610b28565b80601f016020809104026020016040519081016040528092919081815260200182805461078790610b28565b80156107d25780601f106107a9576101008083540402835291602001916107d2565b820191905f5260205f20905b8154815290600101906020018083116107b557829003601f168201915b5050506001909301549192505061ffff81169060ff620100009091041683565b335f9081526003602052604090206004015460ff1680156108555760405162461bcd60e51b815260206004820152601e60248201527f596f752063616e206f6e6c792068617665206f6e6520637265617475726500006044820152606401610222565b6040805160e0810182528381526032602082018190529181019190915242606082018190526080820152600160a082015260c081015f9052335f908152600360205260409020815181906108a99082610c0b565b506020820151600182018054604085015161ffff908116620100000263ffffffff19909216931692909217919091179055606082015160028201556080820151600382015560a082015160048201805491151560ff1983168117825560c08501519261ff001990911661ffff19919091161761010083600681111561093057610930610a76565b021790555050505050565b634e487b7160e01b5f52604160045260245ffd5b5f6020828403121561095f575f5ffd5b813567ffffffffffffffff811115610975575f5ffd5b8201601f81018413610985575f5ffd5b803567ffffffffffffffff81111561099f5761099f61093b565b604051601f8201601f19908116603f0116810167ffffffffffffffff811182821017156109ce576109ce61093b565b6040528181528282016020018610156109e5575f5ffd5b816020840160208301375f91810160200191909152949350505050565b5f81518084528060208401602086015e5f602082860101526020601f19601f83011685010191505092915050565b602081525f610a426020830184610a02565b9392505050565b606081525f610a5b6060830186610a02565b61ffff94909416602083015250901515604090910152919050565b634e487b7160e01b5f52602160045260245ffd5b6020810160078310610aaa57634e487b7160e01b5f52602160045260245ffd5b91905290565b602080825260149082015273086e4cac2e8eae4ca40d2e640c8cac2c8424074560631b604082015260600190565b5f82518060208501845e5f920191825250919050565b634e487b7160e01b5f52601160045260245ffd5b61ffff8181168382160190811115610b2257610b22610af4565b92915050565b600181811c90821680610b3c57607f821691505b602082108103610b5a57634e487b7160e01b5f52602260045260245ffd5b50919050565b81810381811115610b2257610b22610af4565b5f82610b8d57634e487b7160e01b5f52601260045260245ffd5b500490565b61ffff8281168282160390811115610b2257610b22610af4565b80820180821115610b2257610b22610af4565b601f821115610c0657805f5260205f20601f840160051c81016020851015610be45750805b601f840160051c820191505b81811015610c03575f8155600101610bf0565b50505b505050565b815167ffffffffffffffff811115610c2557610c2561093b565b610c3981610c338454610b28565b84610bbf565b6020601f821160018114610c6b575f8315610c545750848201515b5f19600385901b1c1916600184901b178455610c03565b5f84815260208120601f198516915b82811015610c9a5787850151825560209485019460019092019101610c7a565b5084821015610cb757868401515f19600387901b60f8161c191681555b50505050600190811b0190555056fea264697066735822122061c9fdfce6f197861cbd63cdf872e8fb1c344ff4bff022b53d1de5d9b5b2bebe64736f6c634300081c0033",
  "linkReferences": {},
  "deployedLinkReferences": {},
  "immutableReferences": {},
  "inputSourceName": "project/contracts/Tamagochi.sol",
  "buildInfoId": "solc-0_8_28-20b23ed77c0c97d8130e170782a64399ef2b9871"
}