{
  "_format": "hh3-artifact-1",
  "contractName": "Tamagochi",
  "sourceName": "contracts/Tamagochi.sol",
  "abi": [
    {
      "inputs": [],
      "stateMutability": "nonpayable",
      "type": "constructor"
    },
    {
      "inputs": [
        {
          "internalType": "string",
          "name": "name",
          "type": "string"
        }
      ],
      "name": "addTama",
      "outputs": [],
      "stateMutability": "nonpayable",
      "type": "function"
    },
    {
      "inputs": [],
      "name": "getMyCreature",
      "outputs": [
        {
          "internalType": "string",
          "name": "name",
          "type": "string"
        }
      ],
      "stateMutability": "view",
      "type": "function"
    }
  ],
  "bytecode": "0x6080604052348015600e575f5ffd5b505f80546001600160a01b031916331790556103ea8061002d5f395ff3fe608060405234801561000f575f5ffd5b5060043610610034575f3560e01c80638b318b0b14610038578063ca66cea614610056575b5f5ffd5b61004061006b565b60405161004d9190610179565b60405180910390f35b6100696100643660046101c2565b610109565b005b335f90815260016020526040902080546060919061008890610275565b80601f01602080910402602001604051908101604052809291908181526020018280546100b490610275565b80156100ff5780601f106100d6576101008083540402835291602001916100ff565b820191905f5260205f20905b8154815290600101906020018083116100e257829003601f168201915b5050505050905090565b604080516060810182528281526032602080830182905282840191909152335f9081526001909152919091208151819061014390826102f9565b5060208201516001909101805460409093015161ffff908116620100000263ffffffff1990941692169190911791909117905550565b602081525f82518060208401528060208501604085015e5f604082850101526040601f19601f83011684010191505092915050565b634e487b7160e01b5f52604160045260245ffd5b5f602082840312156101d2575f5ffd5b813567ffffffffffffffff8111156101e8575f5ffd5b8201601f810184136101f8575f5ffd5b803567ffffffffffffffff811115610212576102126101ae565b604051601f8201601f19908116603f0116810167ffffffffffffffff81118282101715610241576102416101ae565b604052818152828201602001861015610258575f5ffd5b816020840160208301375f91810160200191909152949350505050565b600181811c9082168061028957607f821691505b6020821081036102a757634e487b7160e01b5f52602260045260245ffd5b50919050565b601f8211156102f457805f5260205f20601f840160051c810160208510156102d25750805b601f840160051c820191505b818110156102f1575f81556001016102de565b50505b505050565b815167ffffffffffffffff811115610313576103136101ae565b610327816103218454610275565b846102ad565b6020601f821160018114610359575f83156103425750848201515b5f19600385901b1c1916600184901b1784556102f1565b5f84815260208120601f198516915b828110156103885787850151825560209485019460019092019101610368565b50848210156103a557868401515f19600387901b60f8161c191681555b50505050600190811b0190555056fea2646970667358221220fca97b679a5cbad2686a0a94b21c562ee2e794c8f40e2d3ca0872875c36af05764736f6c634300081c0033",
  "linkReferences": {},
  "deployedLinkReferences": {},
  "immutableReferences": {},
  "inputSourceName": "project/contracts/Tamagochi.sol",
  "buildInfoId": "solc-0_8_28-5398260e58f743b80ab8051821bc25ddaba8edcd"
}